{
    "contractName": "DecentralBank",
    "abi": [
        {
            "inputs": [
                {
                    "internalType": "contract SingaCoin",
                    "name": "_singaCoin",
                    "type": "address"
                },
                {
                    "internalType": "contract KopiToken",
                    "name": "_kopiToken",
                    "type": "address"
                }
            ],
            "stateMutability": "nonpayable",
            "type": "constructor"
        },
        {
            "inputs": [
                {
                    "internalType": "uint256",
                    "name": "amount",
                    "type": "uint256"
                }
            ],
            "name": "depositStableTokens",
            "outputs": [],
            "stateMutability": "nonpayable",
            "type": "function"
        },
        {
            "inputs": [],
            "name": "kopiToken",
            "outputs": [
                {
                    "internalType": "contract KopiToken",
                    "name": "",
                    "type": "address"
                }
            ],
            "stateMutability": "view",
            "type": "function"
        },
        {
            "inputs": [],
            "name": "name",
            "outputs": [
                {
                    "internalType": "string",
                    "name": "",
                    "type": "string"
                }
            ],
            "stateMutability": "view",
            "type": "function"
        },
        {
            "inputs": [],
            "name": "owner",
            "outputs": [
                {
                    "internalType": "address",
                    "name": "",
                    "type": "address"
                }
            ],
            "stateMutability": "view",
            "type": "function"
        },
        {
            "inputs": [],
            "name": "singaCoin",
            "outputs": [
                {
                    "internalType": "contract SingaCoin",
                    "name": "",
                    "type": "address"
                }
            ],
            "stateMutability": "view",
            "type": "function"
        }
    ],
    "bytecode": "60c0604052600e60809081526d446563656e7472616c2042616e6b60901b60a05260009061002d9082610129565b5034801561003a57600080fd5b5060405161053d38038061053d83398101604081905261005991610200565b600280546001600160a01b039384166001600160a01b0319918216179091556003805492909316911617905561023a565b634e487b7160e01b600052604160045260246000fd5b600181811c908216806100b457607f821691505b6020821081036100d457634e487b7160e01b600052602260045260246000fd5b50919050565b601f82111561012457600081815260208120601f850160051c810160208610156101015750805b601f850160051c820191505b818110156101205782815560010161010d565b5050505b505050565b81516001600160401b038111156101425761014261008a565b6101568161015084546100a0565b846100da565b602080601f83116001811461018b57600084156101735750858301515b600019600386901b1c1916600185901b178555610120565b600085815260208120601f198616915b828110156101ba5788860151825594840194600190910190840161019b565b50858210156101d85787850151600019600388901b60f8161c191681555b5050505050600190811b01905550565b6001600160a01b03811681146101fd57600080fd5b50565b6000806040838503121561021357600080fd5b825161021e816101e8565b602084015190925061022f816101e8565b809150509250929050565b6102f4806102496000396000f3fe608060405234801561001057600080fd5b50600436106100575760003560e01c806306fdde031461005c578063616f89e11461007a5780638da5cb5b1461008f578063a88d702a146100ba578063dbdfe708146100cd575b600080fd5b6100646100e0565b60405161007191906101ed565b60405180910390f35b61008d610088366004610242565b61016e565b005b6001546100a2906001600160a01b031681565b6040516001600160a01b039091168152602001610071565b6003546100a2906001600160a01b031681565b6002546100a2906001600160a01b031681565b600080546100ed9061025b565b80601f01602080910402602001604051908101604052809291908181526020018280546101199061025b565b80156101665780601f1061013b57610100808354040283529160200191610166565b820191906000526020600020905b81548152906001019060200180831161014957829003601f168201915b505050505081565b6002546040516323b872dd60e01b8152336004820152306024820152604481018390526001600160a01b03909116906323b872dd906064016020604051808303816000875af11580156101c5573d6000803e3d6000fd5b505050506040513d601f19601f820116820180604052508101906101e99190610295565b5050565b600060208083528351808285015260005b8181101561021a578581018301518582016040015282016101fe565b8181111561022c576000604083870101525b50601f01601f1916929092016040019392505050565b60006020828403121561025457600080fd5b5035919050565b600181811c9082168061026f57607f821691505b60208210810361028f57634e487b7160e01b600052602260045260246000fd5b50919050565b6000602082840312156102a757600080fd5b815180151581146102b757600080fd5b939250505056fea264697066735822122042454a58307ae7094db8774595033aa529d24c121d42e5b7750aa86381906ea064736f6c634300080f0033",
    "sourcePath": "c:/Users/maxim/VSCode/Solidity/defi-staking-app-starter/src/contracts/DecentralBank.sol",
    "compiler": {
        "name": "solc",
        "version": "0.8.15+commit.e14f2714"
    },
    "functionHashes": {
        "depositStableTokens(uint256)": "616f89e1",
        "kopiToken()": "a88d702a",
        "name()": "06fdde03",
        "owner()": "8da5cb5b",
        "singaCoin()": "dbdfe708"
    },
    "gasEstimates": {
        "creation": {
            "codeDepositCost": "151200",
            "executionCost": "infinite",
            "totalCost": "infinite"
        },
        "external": {
            "depositStableTokens(uint256)": "infinite",
            "kopiToken()": "2381",
            "name()": "infinite",
            "owner()": "2359",
            "singaCoin()": "2403"
        }
    }
}