{
  "contractName": "DecentralBank",
  "abi": [
    {
      "inputs": [
        {
          "internalType": "contract SingaCoin",
          "name": "_singaCoin",
          "type": "address"
        },
        {
          "internalType": "contract KopiToken",
          "name": "_kopiToken",
          "type": "address"
        }
      ],
      "stateMutability": "nonpayable",
      "type": "constructor"
    },
    {
      "inputs": [
        {
          "internalType": "address",
          "name": "",
          "type": "address"
        }
      ],
      "name": "hasStakedMap",
      "outputs": [
        {
          "internalType": "bool",
          "name": "",
          "type": "bool"
        }
      ],
      "stateMutability": "view",
      "type": "function",
      "constant": true
    },
    {
      "inputs": [
        {
          "internalType": "address",
          "name": "",
          "type": "address"
        }
      ],
      "name": "isStakingMap",
      "outputs": [
        {
          "internalType": "bool",
          "name": "",
          "type": "bool"
        }
      ],
      "stateMutability": "view",
      "type": "function",
      "constant": true
    },
    {
      "inputs": [],
      "name": "kopiToken",
      "outputs": [
        {
          "internalType": "contract KopiToken",
          "name": "",
          "type": "address"
        }
      ],
      "stateMutability": "view",
      "type": "function",
      "constant": true
    },
    {
      "inputs": [],
      "name": "name",
      "outputs": [
        {
          "internalType": "string",
          "name": "",
          "type": "string"
        }
      ],
      "stateMutability": "view",
      "type": "function",
      "constant": true
    },
    {
      "inputs": [],
      "name": "owner",
      "outputs": [
        {
          "internalType": "address",
          "name": "",
          "type": "address"
        }
      ],
      "stateMutability": "view",
      "type": "function",
      "constant": true
    },
    {
      "inputs": [],
      "name": "singaCoin",
      "outputs": [
        {
          "internalType": "contract SingaCoin",
          "name": "",
          "type": "address"
        }
      ],
      "stateMutability": "view",
      "type": "function",
      "constant": true
    },
    {
      "inputs": [
        {
          "internalType": "uint256",
          "name": "",
          "type": "uint256"
        }
      ],
      "name": "stakerAddresses",
      "outputs": [
        {
          "internalType": "address",
          "name": "",
          "type": "address"
        }
      ],
      "stateMutability": "view",
      "type": "function",
      "constant": true
    },
    {
      "inputs": [
        {
          "internalType": "address",
          "name": "",
          "type": "address"
        }
      ],
      "name": "stakingBalanceMap",
      "outputs": [
        {
          "internalType": "uint256",
          "name": "",
          "type": "uint256"
        }
      ],
      "stateMutability": "view",
      "type": "function",
      "constant": true
    },
    {
      "inputs": [
        {
          "internalType": "uint256",
          "name": "_amount",
          "type": "uint256"
        }
      ],
      "name": "depositStableTokens",
      "outputs": [],
      "stateMutability": "nonpayable",
      "type": "function"
    },
    {
      "inputs": [],
      "name": "issueRewardTokens",
      "outputs": [],
      "stateMutability": "nonpayable",
      "type": "function"
    },
    {
      "inputs": [
        {
          "internalType": "uint256",
          "name": "_amount",
          "type": "uint256"
        }
      ],
      "name": "unstakeTokens",
      "outputs": [],
      "stateMutability": "nonpayable",
      "type": "function"
    }
  ],
  "bytecode": "0x60806040526040518060400160405280600e81526020017f446563656e7472616c2042616e6b000000000000000000000000000000000000815250600090816200004a9190620003c3565b503480156200005857600080fd5b50604051620018323803806200183283398181016040528101906200007e91906200056d565b81600260006101000a81548173ffffffffffffffffffffffffffffffffffffffff021916908373ffffffffffffffffffffffffffffffffffffffff16021790555080600360006101000a81548173ffffffffffffffffffffffffffffffffffffffff021916908373ffffffffffffffffffffffffffffffffffffffff16021790555033600160006101000a81548173ffffffffffffffffffffffffffffffffffffffff021916908373ffffffffffffffffffffffffffffffffffffffff1602179055505050620005b4565b600081519050919050565b7f4e487b7100000000000000000000000000000000000000000000000000000000600052604160045260246000fd5b7f4e487b7100000000000000000000000000000000000000000000000000000000600052602260045260246000fd5b60006002820490506001821680620001cb57607f821691505b602082108103620001e157620001e062000183565b5b50919050565b60008190508160005260206000209050919050565b60006020601f8301049050919050565b600082821b905092915050565b6000600883026200024b7fffffffffffffffffffffffffffffffffffffffffffffffffffffffffffffffff826200020c565b6200025786836200020c565b95508019841693508086168417925050509392505050565b6000819050919050565b6000819050919050565b6000620002a46200029e62000298846200026f565b62000279565b6200026f565b9050919050565b6000819050919050565b620002c08362000283565b620002d8620002cf82620002ab565b84845462000219565b825550505050565b600090565b620002ef620002e0565b620002fc818484620002b5565b505050565b5b81811015620003245762000318600082620002e5565b60018101905062000302565b5050565b601f82111562000373576200033d81620001e7565b6200034884620001fc565b8101602085101562000358578190505b620003706200036785620001fc565b83018262000301565b50505b505050565b600082821c905092915050565b6000620003986000198460080262000378565b1980831691505092915050565b6000620003b3838362000385565b9150826002028217905092915050565b620003ce8262000149565b67ffffffffffffffff811115620003ea57620003e962000154565b5b620003f68254620001b2565b6200040382828562000328565b600060209050601f8311600181146200043b576000841562000426578287015190505b620004328582620003a5565b865550620004a2565b601f1984166200044b86620001e7565b60005b8281101562000475578489015182556001820191506020850194506020810190506200044e565b8683101562000495578489015162000491601f89168262000385565b8355505b6001600288020188555050505b505050505050565b600080fd5b600073ffffffffffffffffffffffffffffffffffffffff82169050919050565b6000620004dc82620004af565b9050919050565b6000620004f082620004cf565b9050919050565b6200050281620004e3565b81146200050e57600080fd5b50565b6000815190506200052281620004f7565b92915050565b60006200053582620004cf565b9050919050565b620005478162000528565b81146200055357600080fd5b50565b60008151905062000567816200053c565b92915050565b60008060408385031215620005875762000586620004aa565b5b6000620005978582860162000511565b9250506020620005aa8582860162000556565b9150509250929050565b61126e80620005c46000396000f3fe608060405234801561001057600080fd5b50600436106100a95760003560e01c80638da5cb5b116100715780638da5cb5b1461013e5780638fe741ba1461015c578063a88d702a1461018c578063dbdfe708146101aa578063e8afe9fa146101c8578063ed11eb1b146101f8576100a9565b806306fdde03146100ae578063459598a2146100cc578063608e4dd0146100fc578063616f89e114610118578063630392c014610134575b600080fd5b6100b6610228565b6040516100c39190610b84565b60405180910390f35b6100e660048036038101906100e19190610be1565b6102b6565b6040516100f39190610c4f565b60405180910390f35b61011660048036038101906101119190610be1565b6102f5565b005b610132600480360381019061012d9190610be1565b61054f565b005b61013c61082b565b005b610146610a21565b6040516101539190610c4f565b60405180910390f35b61017660048036038101906101719190610c96565b610a47565b6040516101839190610cde565b60405180910390f35b610194610a67565b6040516101a19190610d58565b60405180910390f35b6101b2610a8d565b6040516101bf9190610d94565b60405180910390f35b6101e260048036038101906101dd9190610c96565b610ab3565b6040516101ef9190610cde565b60405180910390f35b610212600480360381019061020d9190610c96565b610ad3565b60405161021f9190610dbe565b60405180910390f35b6000805461023590610e08565b80601f016020809104026020016040519081016040528092919081815260200182805461026190610e08565b80156102ae5780601f10610283576101008083540402835291602001916102ae565b820191906000526020600020905b81548152906001019060200180831161029157829003601f168201915b505050505081565b600481815481106102c657600080fd5b906000526020600020016000915054906101000a900473ffffffffffffffffffffffffffffffffffffffff1681565b6000600560003373ffffffffffffffffffffffffffffffffffffffff1673ffffffffffffffffffffffffffffffffffffffff1681526020019081526020016000205490506000821161037c576040517f08c379a000000000000000000000000000000000000000000000000000000000815260040161037390610eab565b60405180910390fd5b600260009054906101000a900473ffffffffffffffffffffffffffffffffffffffff1673ffffffffffffffffffffffffffffffffffffffff1663a9059cbb33836040518363ffffffff1660e01b81526004016103d9929190610ecb565b6020604051808303816000875af11580156103f8573d6000803e3d6000fd5b505050506040513d601f19601f8201168201806040525081019061041c9190610f20565b5081600560003373ffffffffffffffffffffffffffffffffffffffff1673ffffffffffffffffffffffffffffffffffffffff168152602001908152602001600020546104689190610f7c565b600560003373ffffffffffffffffffffffffffffffffffffffff1673ffffffffffffffffffffffffffffffffffffffff168152602001908152602001600020819055506000600560003373ffffffffffffffffffffffffffffffffffffffff1673ffffffffffffffffffffffffffffffffffffffff168152602001908152602001600020540361054b576000600760003373ffffffffffffffffffffffffffffffffffffffff1673ffffffffffffffffffffffffffffffffffffffff16815260200190815260200160002060006101000a81548160ff0219169083151502179055505b5050565b60008111610592576040517f08c379a000000000000000000000000000000000000000000000000000000000815260040161058990611022565b60405180910390fd5b600260009054906101000a900473ffffffffffffffffffffffffffffffffffffffff1673ffffffffffffffffffffffffffffffffffffffff166323b872dd3330846040518463ffffffff1660e01b81526004016105f193929190611042565b6020604051808303816000875af1158015610610573d6000803e3d6000fd5b505050506040513d601f19601f820116820180604052508101906106349190610f20565b5080600560003373ffffffffffffffffffffffffffffffffffffffff1673ffffffffffffffffffffffffffffffffffffffff168152602001908152602001600020546106809190611079565b600560003373ffffffffffffffffffffffffffffffffffffffff1673ffffffffffffffffffffffffffffffffffffffff16815260200190815260200160002081905550600660003373ffffffffffffffffffffffffffffffffffffffff1673ffffffffffffffffffffffffffffffffffffffff16815260200190815260200160002060009054906101000a900460ff16610778576004339080600181540180825580915050600190039060005260206000200160009091909190916101000a81548173ffffffffffffffffffffffffffffffffffffffff021916908373ffffffffffffffffffffffffffffffffffffffff1602179055505b6001600660003373ffffffffffffffffffffffffffffffffffffffff1673ffffffffffffffffffffffffffffffffffffffff16815260200190815260200160002060006101000a81548160ff0219169083151502179055506001600760003373ffffffffffffffffffffffffffffffffffffffff1673ffffffffffffffffffffffffffffffffffffffff16815260200190815260200160002060006101000a81548160ff02191690831515021790555050565b600160009054906101000a900473ffffffffffffffffffffffffffffffffffffffff1673ffffffffffffffffffffffffffffffffffffffff163373ffffffffffffffffffffffffffffffffffffffff16146108bb576040517f08c379a00000000000000000000000000000000000000000000000000000000081526004016108b290611141565b60405180910390fd5b60005b600480549050811015610a1e576000600482815481106108e1576108e0611161565b5b9060005260206000200160009054906101000a900473ffffffffffffffffffffffffffffffffffffffff1690506000600a600560008473ffffffffffffffffffffffffffffffffffffffff1673ffffffffffffffffffffffffffffffffffffffff1681526020019081526020016000205461095c91906111bf565b90506000811115610a0957600360009054906101000a900473ffffffffffffffffffffffffffffffffffffffff1673ffffffffffffffffffffffffffffffffffffffff1663a9059cbb83836040518363ffffffff1660e01b81526004016109c4929190610ecb565b6020604051808303816000875af11580156109e3573d6000803e3d6000fd5b505050506040513d601f19601f82011682018060405250810190610a079190610f20565b505b50508080610a16906111f0565b9150506108be565b50565b600160009054906101000a900473ffffffffffffffffffffffffffffffffffffffff1681565b60076020528060005260406000206000915054906101000a900460ff1681565b600360009054906101000a900473ffffffffffffffffffffffffffffffffffffffff1681565b600260009054906101000a900473ffffffffffffffffffffffffffffffffffffffff1681565b60066020528060005260406000206000915054906101000a900460ff1681565b60056020528060005260406000206000915090505481565b600081519050919050565b600082825260208201905092915050565b60005b83811015610b25578082015181840152602081019050610b0a565b83811115610b34576000848401525b50505050565b6000601f19601f8301169050919050565b6000610b5682610aeb565b610b608185610af6565b9350610b70818560208601610b07565b610b7981610b3a565b840191505092915050565b60006020820190508181036000830152610b9e8184610b4b565b905092915050565b600080fd5b6000819050919050565b610bbe81610bab565b8114610bc957600080fd5b50565b600081359050610bdb81610bb5565b92915050565b600060208284031215610bf757610bf6610ba6565b5b6000610c0584828501610bcc565b91505092915050565b600073ffffffffffffffffffffffffffffffffffffffff82169050919050565b6000610c3982610c0e565b9050919050565b610c4981610c2e565b82525050565b6000602082019050610c646000830184610c40565b92915050565b610c7381610c2e565b8114610c7e57600080fd5b50565b600081359050610c9081610c6a565b92915050565b600060208284031215610cac57610cab610ba6565b5b6000610cba84828501610c81565b91505092915050565b60008115159050919050565b610cd881610cc3565b82525050565b6000602082019050610cf36000830184610ccf565b92915050565b6000819050919050565b6000610d1e610d19610d1484610c0e565b610cf9565b610c0e565b9050919050565b6000610d3082610d03565b9050919050565b6000610d4282610d25565b9050919050565b610d5281610d37565b82525050565b6000602082019050610d6d6000830184610d49565b92915050565b6000610d7e82610d25565b9050919050565b610d8e81610d73565b82525050565b6000602082019050610da96000830184610d85565b92915050565b610db881610bab565b82525050565b6000602082019050610dd36000830184610daf565b92915050565b7f4e487b7100000000000000000000000000000000000000000000000000000000600052602260045260246000fd5b60006002820490506001821680610e2057607f821691505b602082108103610e3357610e32610dd9565b5b50919050565b7f42616c616e636520746f20756e7374616b652068617320746f2062652067726560008201527f61746572207468616e2030210000000000000000000000000000000000000000602082015250565b6000610e95602c83610af6565b9150610ea082610e39565b604082019050919050565b60006020820190508181036000830152610ec481610e88565b9050919050565b6000604082019050610ee06000830185610c40565b610eed6020830184610daf565b9392505050565b610efd81610cc3565b8114610f0857600080fd5b50565b600081519050610f1a81610ef4565b92915050565b600060208284031215610f3657610f35610ba6565b5b6000610f4484828501610f0b565b91505092915050565b7f4e487b7100000000000000000000000000000000000000000000000000000000600052601160045260246000fd5b6000610f8782610bab565b9150610f9283610bab565b925082821015610fa557610fa4610f4d565b5b828203905092915050565b7f5374616b696e6720616d6f756e742068617320746f206265206772656174657260008201527f207468616e203021000000000000000000000000000000000000000000000000602082015250565b600061100c602883610af6565b915061101782610fb0565b604082019050919050565b6000602082019050818103600083015261103b81610fff565b9050919050565b60006060820190506110576000830186610c40565b6110646020830185610c40565b6110716040830184610daf565b949350505050565b600061108482610bab565b915061108f83610bab565b9250827fffffffffffffffffffffffffffffffffffffffffffffffffffffffffffffffff038211156110c4576110c3610f4d565b5b828201905092915050565b7f596f75206861766520746f20626520746865206f776e6572206f66207468652060008201527f636f6e747261637420746f2063616c6c20746869732066756e6374696f6e2100602082015250565b600061112b603f83610af6565b9150611136826110cf565b604082019050919050565b6000602082019050818103600083015261115a8161111e565b9050919050565b7f4e487b7100000000000000000000000000000000000000000000000000000000600052603260045260246000fd5b7f4e487b7100000000000000000000000000000000000000000000000000000000600052601260045260246000fd5b60006111ca82610bab565b91506111d583610bab565b9250826111e5576111e4611190565b5b828204905092915050565b60006111fb82610bab565b91507fffffffffffffffffffffffffffffffffffffffffffffffffffffffffffffffff820361122d5761122c610f4d565b5b60018201905091905056fea264697066735822122036d29f57bfe0ef816130496bcd666d90ab9fb22e16a94fcfaaf24707c266aeac64736f6c634300080f0033",
  "immutableReferences": {},
  "source": "pragma solidity ^0.8.0;\r\n\r\nimport './KopiToken.sol';\r\nimport './SingaCoin.sol';\r\n\r\ncontract DecentralBank {\r\n    string public name = 'Decentral Bank';\r\n    address public owner;\r\n\r\n    SingaCoin public singaCoin;\r\n    KopiToken public kopiToken;\r\n\r\n    address[] public stakerAddresses;\r\n\r\n    mapping(address => uint) public stakingBalanceMap;\r\n    mapping(address => bool) public hasStakedMap;\r\n    mapping(address => bool) public isStakingMap; \r\n\r\n    constructor(SingaCoin _singaCoin, KopiToken _kopiToken) {\r\n        singaCoin = _singaCoin;\r\n        kopiToken = _kopiToken;\r\n        owner = msg.sender;\r\n    }\r\n\r\n    \r\n    function depositStableTokens(uint _amount) public {\r\n\r\n        require(_amount > 0, \"Staking amount has to be greater than 0!\");\r\n\r\n        // transferring SingaCoin to this DecentralBank contract\r\n        singaCoin.transferFrom(msg.sender, address(this), _amount);\r\n\r\n        // update staking balance\r\n        stakingBalanceMap[msg.sender] = stakingBalanceMap[msg.sender] + _amount;\r\n\r\n        if (!hasStakedMap[msg.sender]) {\r\n\r\n            stakerAddresses.push(msg.sender);\r\n        }\r\n\r\n        hasStakedMap[msg.sender] = true;\r\n        isStakingMap[msg.sender] = true;\r\n\r\n\r\n    }\r\n\r\n    // issue rewards\r\n    function issueRewardTokens() public {\r\n        // only owner can issue tokens\r\n        require(msg.sender == owner, \"You have to be the owner of the contract to call this function!\");\r\n\r\n        for(uint i=0; i < stakerAddresses.length; i++) {\r\n            address recipient = stakerAddresses[i];\r\n            uint rewardAmount = stakingBalanceMap[recipient] / 10;\r\n\r\n            if (rewardAmount > 0) {\r\n                kopiToken.transfer(recipient, rewardAmount);\r\n            }\r\n        }\r\n    }\r\n\r\n    function unstakeTokens(uint _amount) public {\r\n\r\n        uint balance = stakingBalanceMap[msg.sender];\r\n\r\n        require(_amount > 0, \"Balance to unstake has to be greater than 0!\");\r\n\r\n        // transfer the staked from our bank to the caller's wallet\r\n        singaCoin.transfer(msg.sender, balance);\r\n\r\n        // update staking balance of caller\r\n        stakingBalanceMap[msg.sender] = stakingBalanceMap[msg.sender] - _amount;\r\n\r\n        if (stakingBalanceMap[msg.sender] == 0) {\r\n            isStakingMap[msg.sender] = false;\r\n        }\r\n        \r\n    }\r\n\r\n    \r\n\r\n\r\n\r\n}",
  "sourcePath": "C:\\Users\\maxim\\VSCode\\Solidity\\defi-staking-app-starter\\src\\contracts\\DecentralBank.sol",
  "compiler": {
    "name": "solc",
    "version": "0.8.15+commit.e14f2714.Emscripten.clang"
  },
  "schemaVersion": "3.4.7",
  "updatedAt": "2022-06-25T09:08:31.902Z",
  "networkType": "ethereum",
  "devdoc": {
    "kind": "dev",
    "methods": {},
    "version": 1
  },
  "userdoc": {
    "kind": "user",
    "methods": {},
    "version": 1
  }
}